{
  "_format": "hh-sol-artifact-1",
  "contractName": "DStream",
  "sourceName": "contracts/DStream.sol",
  "abi": [
    {
      "inputs": [],
      "stateMutability": "nonpayable",
      "type": "constructor"
    },
    {
      "anonymous": false,
      "inputs": [
        {
          "indexed": true,
          "internalType": "address",
          "name": "owner",
          "type": "address"
        },
        {
          "indexed": true,
          "internalType": "address",
          "name": "approved",
          "type": "address"
        },
        {
          "indexed": true,
          "internalType": "uint256",
          "name": "tokenId",
          "type": "uint256"
        }
      ],
      "name": "Approval",
      "type": "event"
    },
    {
      "anonymous": false,
      "inputs": [
        {
          "indexed": true,
          "internalType": "address",
          "name": "owner",
          "type": "address"
        },
        {
          "indexed": true,
          "internalType": "address",
          "name": "operator",
          "type": "address"
        },
        {
          "indexed": false,
          "internalType": "bool",
          "name": "approved",
          "type": "bool"
        }
      ],
      "name": "ApprovalForAll",
      "type": "event"
    },
    {
      "anonymous": false,
      "inputs": [
        {
          "indexed": false,
          "internalType": "uint256",
          "name": "tokenId",
          "type": "uint256"
        },
        {
          "indexed": false,
          "internalType": "address",
          "name": "seller",
          "type": "address"
        },
        {
          "indexed": false,
          "internalType": "address",
          "name": "owner",
          "type": "address"
        },
        {
          "indexed": false,
          "internalType": "uint256",
          "name": "price",
          "type": "uint256"
        }
      ],
      "name": "MarketItemCreated",
      "type": "event"
    },
    {
      "anonymous": false,
      "inputs": [
        {
          "indexed": true,
          "internalType": "address",
          "name": "from",
          "type": "address"
        },
        {
          "indexed": true,
          "internalType": "address",
          "name": "to",
          "type": "address"
        },
        {
          "indexed": true,
          "internalType": "uint256",
          "name": "tokenId",
          "type": "uint256"
        }
      ],
      "name": "Transfer",
      "type": "event"
    },
    {
      "anonymous": false,
      "inputs": [
        {
          "indexed": false,
          "internalType": "uint256",
          "name": "tokenId",
          "type": "uint256"
        },
        {
          "indexed": false,
          "internalType": "address",
          "name": "author",
          "type": "address"
        }
      ],
      "name": "VideoItemUploaded",
      "type": "event"
    },
    {
      "inputs": [
        {
          "internalType": "address",
          "name": "to",
          "type": "address"
        },
        {
          "internalType": "uint256",
          "name": "tokenId",
          "type": "uint256"
        }
      ],
      "name": "approve",
      "outputs": [],
      "stateMutability": "nonpayable",
      "type": "function"
    },
    {
      "inputs": [
        {
          "internalType": "address",
          "name": "owner",
          "type": "address"
        }
      ],
      "name": "balanceOf",
      "outputs": [
        {
          "internalType": "uint256",
          "name": "",
          "type": "uint256"
        }
      ],
      "stateMutability": "view",
      "type": "function"
    },
    {
      "inputs": [
        {
          "internalType": "uint256",
          "name": "tokenId",
          "type": "uint256"
        }
      ],
      "name": "createMarketSale",
      "outputs": [],
      "stateMutability": "payable",
      "type": "function"
    },
    {
      "inputs": [
        {
          "internalType": "string",
          "name": "tokenURI",
          "type": "string"
        }
      ],
      "name": "createToken",
      "outputs": [
        {
          "internalType": "uint256",
          "name": "",
          "type": "uint256"
        }
      ],
      "stateMutability": "payable",
      "type": "function"
    },
    {
      "inputs": [
        {
          "internalType": "address",
          "name": "queryAddress",
          "type": "address"
        }
      ],
      "name": "fetchAllAddressVideos",
      "outputs": [
        {
          "components": [
            {
              "internalType": "uint256",
              "name": "tokenId",
              "type": "uint256"
            },
            {
              "internalType": "address",
              "name": "author",
              "type": "address"
            },
            {
              "internalType": "address",
              "name": "owner",
              "type": "address"
            },
            {
              "internalType": "bool",
              "name": "isMarketItem",
              "type": "bool"
            },
            {
              "internalType": "address",
              "name": "seller",
              "type": "address"
            },
            {
              "internalType": "uint256",
              "name": "price",
              "type": "uint256"
            }
          ],
          "internalType": "struct DStream.VideoReturnItem[]",
          "name": "",
          "type": "tuple[]"
        }
      ],
      "stateMutability": "view",
      "type": "function"
    },
    {
      "inputs": [],
      "name": "fetchAllMarketplaceVideos",
      "outputs": [
        {
          "components": [
            {
              "internalType": "uint256",
              "name": "tokenId",
              "type": "uint256"
            },
            {
              "internalType": "address",
              "name": "author",
              "type": "address"
            },
            {
              "internalType": "address",
              "name": "owner",
              "type": "address"
            },
            {
              "internalType": "bool",
              "name": "isMarketItem",
              "type": "bool"
            },
            {
              "internalType": "address",
              "name": "seller",
              "type": "address"
            },
            {
              "internalType": "uint256",
              "name": "price",
              "type": "uint256"
            }
          ],
          "internalType": "struct DStream.VideoReturnItem[]",
          "name": "",
          "type": "tuple[]"
        }
      ],
      "stateMutability": "view",
      "type": "function"
    },
    {
      "inputs": [],
      "name": "fetchAllSenderVideos",
      "outputs": [
        {
          "components": [
            {
              "internalType": "uint256",
              "name": "tokenId",
              "type": "uint256"
            },
            {
              "internalType": "address",
              "name": "author",
              "type": "address"
            },
            {
              "internalType": "address",
              "name": "owner",
              "type": "address"
            },
            {
              "internalType": "bool",
              "name": "isMarketItem",
              "type": "bool"
            },
            {
              "internalType": "address",
              "name": "seller",
              "type": "address"
            },
            {
              "internalType": "uint256",
              "name": "price",
              "type": "uint256"
            }
          ],
          "internalType": "struct DStream.VideoReturnItem[]",
          "name": "",
          "type": "tuple[]"
        }
      ],
      "stateMutability": "view",
      "type": "function"
    },
    {
      "inputs": [],
      "name": "fetchAllVideosWithMarketData",
      "outputs": [
        {
          "components": [
            {
              "internalType": "uint256",
              "name": "tokenId",
              "type": "uint256"
            },
            {
              "internalType": "address",
              "name": "author",
              "type": "address"
            },
            {
              "internalType": "address",
              "name": "owner",
              "type": "address"
            },
            {
              "internalType": "bool",
              "name": "isMarketItem",
              "type": "bool"
            },
            {
              "internalType": "address",
              "name": "seller",
              "type": "address"
            },
            {
              "internalType": "uint256",
              "name": "price",
              "type": "uint256"
            }
          ],
          "internalType": "struct DStream.VideoReturnItem[]",
          "name": "",
          "type": "tuple[]"
        }
      ],
      "stateMutability": "view",
      "type": "function"
    },
    {
      "inputs": [
        {
          "internalType": "uint256",
          "name": "tokenId",
          "type": "uint256"
        }
      ],
      "name": "getApproved",
      "outputs": [
        {
          "internalType": "address",
          "name": "",
          "type": "address"
        }
      ],
      "stateMutability": "view",
      "type": "function"
    },
    {
      "inputs": [],
      "name": "getListingPrice",
      "outputs": [
        {
          "internalType": "uint256",
          "name": "",
          "type": "uint256"
        }
      ],
      "stateMutability": "view",
      "type": "function"
    },
    {
      "inputs": [
        {
          "internalType": "uint256",
          "name": "tokenId",
          "type": "uint256"
        }
      ],
      "name": "getVideoItem",
      "outputs": [
        {
          "components": [
            {
              "internalType": "uint256",
              "name": "tokenId",
              "type": "uint256"
            },
            {
              "internalType": "address",
              "name": "author",
              "type": "address"
            },
            {
              "internalType": "address",
              "name": "owner",
              "type": "address"
            },
            {
              "internalType": "bool",
              "name": "isMarketItem",
              "type": "bool"
            },
            {
              "internalType": "address",
              "name": "seller",
              "type": "address"
            },
            {
              "internalType": "uint256",
              "name": "price",
              "type": "uint256"
            }
          ],
          "internalType": "struct DStream.VideoReturnItem",
          "name": "",
          "type": "tuple"
        }
      ],
      "stateMutability": "view",
      "type": "function"
    },
    {
      "inputs": [
        {
          "internalType": "address",
          "name": "owner",
          "type": "address"
        },
        {
          "internalType": "address",
          "name": "operator",
          "type": "address"
        }
      ],
      "name": "isApprovedForAll",
      "outputs": [
        {
          "internalType": "bool",
          "name": "",
          "type": "bool"
        }
      ],
      "stateMutability": "view",
      "type": "function"
    },
    {
      "inputs": [
        {
          "internalType": "uint256",
          "name": "tokenId",
          "type": "uint256"
        },
        {
          "internalType": "uint256",
          "name": "price",
          "type": "uint256"
        }
      ],
      "name": "listTokenInMarket",
      "outputs": [],
      "stateMutability": "payable",
      "type": "function"
    },
    {
      "inputs": [],
      "name": "name",
      "outputs": [
        {
          "internalType": "string",
          "name": "",
          "type": "string"
        }
      ],
      "stateMutability": "view",
      "type": "function"
    },
    {
      "inputs": [
        {
          "internalType": "uint256",
          "name": "tokenId",
          "type": "uint256"
        }
      ],
      "name": "ownerOf",
      "outputs": [
        {
          "internalType": "address",
          "name": "",
          "type": "address"
        }
      ],
      "stateMutability": "view",
      "type": "function"
    },
    {
      "inputs": [
        {
          "internalType": "address",
          "name": "from",
          "type": "address"
        },
        {
          "internalType": "address",
          "name": "to",
          "type": "address"
        },
        {
          "internalType": "uint256",
          "name": "tokenId",
          "type": "uint256"
        }
      ],
      "name": "safeTransferFrom",
      "outputs": [],
      "stateMutability": "nonpayable",
      "type": "function"
    },
    {
      "inputs": [
        {
          "internalType": "address",
          "name": "from",
          "type": "address"
        },
        {
          "internalType": "address",
          "name": "to",
          "type": "address"
        },
        {
          "internalType": "uint256",
          "name": "tokenId",
          "type": "uint256"
        },
        {
          "internalType": "bytes",
          "name": "_data",
          "type": "bytes"
        }
      ],
      "name": "safeTransferFrom",
      "outputs": [],
      "stateMutability": "nonpayable",
      "type": "function"
    },
    {
      "inputs": [
        {
          "internalType": "address",
          "name": "operator",
          "type": "address"
        },
        {
          "internalType": "bool",
          "name": "approved",
          "type": "bool"
        }
      ],
      "name": "setApprovalForAll",
      "outputs": [],
      "stateMutability": "nonpayable",
      "type": "function"
    },
    {
      "inputs": [
        {
          "internalType": "bytes4",
          "name": "interfaceId",
          "type": "bytes4"
        }
      ],
      "name": "supportsInterface",
      "outputs": [
        {
          "internalType": "bool",
          "name": "",
          "type": "bool"
        }
      ],
      "stateMutability": "view",
      "type": "function"
    },
    {
      "inputs": [],
      "name": "symbol",
      "outputs": [
        {
          "internalType": "string",
          "name": "",
          "type": "string"
        }
      ],
      "stateMutability": "view",
      "type": "function"
    },
    {
      "inputs": [
        {
          "internalType": "uint256",
          "name": "tokenId",
          "type": "uint256"
        }
      ],
      "name": "tokenURI",
      "outputs": [
        {
          "internalType": "string",
          "name": "",
          "type": "string"
        }
      ],
      "stateMutability": "view",
      "type": "function"
    },
    {
      "inputs": [
        {
          "internalType": "address",
          "name": "from",
          "type": "address"
        },
        {
          "internalType": "address",
          "name": "to",
          "type": "address"
        },
        {
          "internalType": "uint256",
          "name": "tokenId",
          "type": "uint256"
        }
      ],
      "name": "transferFrom",
      "outputs": [],
      "stateMutability": "nonpayable",
      "type": "function"
    }
  ],
  "bytecode": "0x60806040526658d15e176280006009553480156200001c57600080fd5b50604080518082018252600e81526d4453747265616d20546f6b656e7360901b6020808301918252835180850190945260048452631114d51560e21b9084015281519192916200006f91600091620000a0565b50805162000085906001906020840190620000a0565b5050600a80546001600160a01b031916331790555062000183565b828054620000ae9062000146565b90600052602060002090601f016020900481019282620000d257600085556200011d565b82601f10620000ed57805160ff19168380011785556200011d565b828001600101855582156200011d579182015b828111156200011d57825182559160200191906001019062000100565b506200012b9291506200012f565b5090565b5b808211156200012b576000815560010162000130565b600181811c908216806200015b57607f821691505b602082108114156200017d57634e487b7160e01b600052602260045260246000fd5b50919050565b61274780620001936000396000f3fe6080604052600436106101355760003560e01c806370a08231116100ab578063be9af5361161006f578063be9af53614610356578063c87b56dd14610369578063d14cd4b414610389578063d29aea21146103a9578063e985e9c5146103be578063feab9ba4146103de57600080fd5b806370a08231146102cc57806395d89b41146102ec578063a22cb46514610301578063b88d4fde14610321578063bbcf55541461034157600080fd5b806313a742fd116100fd57806313a742fd1461020a57806323b872dd1461023757806342842e0e1461025757806345576f94146102775780635295814f1461028a5780636352211e146102ac57600080fd5b806301ffc9a71461013a57806306fdde031461016f578063081812fc14610191578063095ea7b3146101c957806312e85585146101eb575b600080fd5b34801561014657600080fd5b5061015a6101553660046120ea565b6103f1565b60405190151581526020015b60405180910390f35b34801561017b57600080fd5b50610184610443565b604051610166919061215f565b34801561019d57600080fd5b506101b16101ac366004612172565b6104d5565b6040516001600160a01b039091168152602001610166565b3480156101d557600080fd5b506101e96101e43660046121a7565b610562565b005b3480156101f757600080fd5b506009545b604051908152602001610166565b34801561021657600080fd5b5061022a610225366004612172565b610678565b604051610166919061221d565b34801561024357600080fd5b506101e961025236600461222b565b610784565b34801561026357600080fd5b506101e961027236600461222b565b6107b5565b6101fc6102853660046122f3565b6107d0565b34801561029657600080fd5b5061029f61080c565b604051610166919061233c565b3480156102b857600080fd5b506101b16102c7366004612172565b6109e4565b3480156102d857600080fd5b506101fc6102e736600461238a565b610a5b565b3480156102f857600080fd5b50610184610ae2565b34801561030d57600080fd5b506101e961031c3660046123a5565b610af1565b34801561032d57600080fd5b506101e961033c3660046123e1565b610b00565b34801561034d57600080fd5b5061029f610b38565b6101e9610364366004612172565b610d02565b34801561037557600080fd5b50610184610384366004612172565b610e48565b34801561039557600080fd5b5061029f6103a436600461238a565b610fbf565b3480156103b557600080fd5b5061029f611202565b3480156103ca57600080fd5b5061015a6103d936600461245d565b61143b565b6101e96103ec366004612490565b611469565b60006001600160e01b031982166380ac58cd60e01b148061042257506001600160e01b03198216635b5e139f60e01b145b8061043d57506301ffc9a760e01b6001600160e01b03198316145b92915050565b606060008054610452906124b2565b80601f016020809104026020016040519081016040528092919081815260200182805461047e906124b2565b80156104cb5780601f106104a0576101008083540402835291602001916104cb565b820191906000526020600020905b8154815290600101906020018083116104ae57829003601f168201915b5050505050905090565b60006104e082611675565b6105465760405162461bcd60e51b815260206004820152602c60248201527f4552433732313a20617070726f76656420717565727920666f72206e6f6e657860448201526b34b9ba32b73a103a37b5b2b760a11b60648201526084015b60405180910390fd5b506000908152600460205260409020546001600160a01b031690565b600061056d826109e4565b9050806001600160a01b0316836001600160a01b031614156105db5760405162461bcd60e51b815260206004820152602160248201527f4552433732313a20617070726f76616c20746f2063757272656e74206f776e656044820152603960f91b606482015260840161053d565b336001600160a01b03821614806105f757506105f7813361143b565b6106695760405162461bcd60e51b815260206004820152603860248201527f4552433732313a20617070726f76652063616c6c6572206973206e6f74206f7760448201527f6e6572206e6f7220617070726f76656420666f7220616c6c0000000000000000606482015260840161053d565b6106738383611692565b505050565b610680612003565b6000828152600c602090815260409182902082516080810184528154815260018201546001600160a01b039081169382019390935260029091015491821692810192909252600160a01b900460ff16151560608201526106de612003565b815181526020808301516001600160a01b039081169183019190915260408084015190911690820152606080830180511515918301919091525115156001141561077d576000848152600b60209081526040918290208251608080820185528254825260018301546001600160a01b03908116948301859052600284015416948201949094526003909101546060909101908152918301525160a08201525b9392505050565b61078e3382611700565b6107aa5760405162461bcd60e51b815260040161053d906124ed565b6106738383836117c2565b61067383838360405180602001604052806000815250610b00565b60006107e0600780546001019055565b60006107eb60075490565b90506107f7338261195e565b6108018184611a91565b61043d816000611b1c565b6060600061081960075490565b9050600061082660085490565b67ffffffffffffffff81111561083e5761083e612267565b60405190808252806020026020018201604052801561087757816020015b610864612003565b81526020019060019003908161085c5790505b50905060005b828110156109dd576000600c81610895846001612554565b815260208082019290925260409081016000208151608081018352815481526001808301546001600160a01b039081169583019590955260029092015493841692810192909252600160a01b90920460ff1615156060820181905290925014156109ca57610901612003565b815181526020808301516001600160a01b0390811691830191909152604080840151909116908201526060808301511515908201526000600b81610946866001612554565b815260208082019290925260409081016000208151608080820184528254825260018301546001600160a01b039081169583018690526002840154169382019390935260039091015460608201908152918501929092525160a0840152855190915082908690869081106109bc576109bc61256c565b602002602001018190525050505b50806109d581612582565b91505061087d565b5092915050565b6000818152600260205260408120546001600160a01b03168061043d5760405162461bcd60e51b815260206004820152602960248201527f4552433732313a206f776e657220717565727920666f72206e6f6e657869737460448201526832b73a103a37b5b2b760b91b606482015260840161053d565b60006001600160a01b038216610ac65760405162461bcd60e51b815260206004820152602a60248201527f4552433732313a2062616c616e636520717565727920666f7220746865207a65604482015269726f206164647265737360b01b606482015260840161053d565b506001600160a01b031660009081526003602052604090205490565b606060018054610452906124b2565b610afc338383611bd7565b5050565b610b0a3383611700565b610b265760405162461bcd60e51b815260040161053d906124ed565b610b3284848484611ca6565b50505050565b60606000610b4560075490565b905060008167ffffffffffffffff811115610b6257610b62612267565b604051908082528060200260200182016040528015610b9b57816020015b610b88612003565b815260200190600190039081610b805790505b50905060005b828110156109dd576000600c81610bb9846001612554565b8152602080820192909252604090810160002081516080810183528154815260018201546001600160a01b039081169482019490945260029091015492831691810191909152600160a01b90910460ff16151560608201529050610c1b612003565b815181526020808301516001600160a01b0390811691830191909152604080840151909116908201526060808301805115159183019190915251151560011415610ccf576000600b81610c6f866001612554565b815260208082019290925260409081016000208151608080820184528254825260018301546001600160a01b03908116958301869052600284015416938201939093526003909101546060909101908152908401919091525160a0830152505b80848481518110610ce257610ce261256c565b602002602001018190525050508080610cfa90612582565b915050610ba1565b6000818152600b6020526040902060038101546001909101546001600160a01b0316348214610d9b576040805162461bcd60e51b81526020600482015260248101919091527f506c65617365207375626d6974207468652061736b696e67207072696365206960448201527f6e206f7264657220746f20636f6d706c65746520746865207075726368617365606482015260840161053d565b6000838152600b602052604081208181556001810180546001600160a01b0319908116909155600282018054909116905560030155610dda6008611cd9565b6000838152600c6020526040902060020180546001600160a81b0319163360ff60a01b19811691909117909155610e13903090856117c2565b6040516001600160a01b038216903480156108fc02916000818181858888f19350505050158015610b32573d6000803e3d6000fd5b6060610e5382611675565b610eb95760405162461bcd60e51b815260206004820152603160248201527f45524337323155524953746f726167653a2055524920717565727920666f72206044820152703737b732bc34b9ba32b73a103a37b5b2b760791b606482015260840161053d565b60008281526006602052604081208054610ed2906124b2565b80601f0160208091040260200160405190810160405280929190818152602001828054610efe906124b2565b8015610f4b5780601f10610f2057610100808354040283529160200191610f4b565b820191906000526020600020905b815481529060010190602001808311610f2e57829003601f168201915b505050505090506000610f6960408051602081019091526000815290565b9050805160001415610f7c575092915050565b815115610fae578082604051602001610f9692919061259d565b60405160208183030381529060405292505050919050565b610fb784611d30565b949350505050565b60606000610fcc60075490565b90506000805b82811015611036576001600160a01b038516600c6000610ff3846001612554565b81526020810191909152604001600020600201546001600160a01b03161415611024578161102081612582565b9250505b8061102e81612582565b915050610fd2565b5060008167ffffffffffffffff81111561105257611052612267565b60405190808252806020026020018201604052801561108b57816020015b611078612003565b8152602001906001900390816110705790505b50905060005b838110156111f9576000600c816110a9846001612554565b8152602080820192909252604090810160002081516080810183528154815260018201546001600160a01b0390811694820194909452600290910154928316918101829052600160a01b90920460ff16151560608301529091503314156111e657611112612003565b815181526020808301516001600160a01b03908116918301919091526040808401519091169082015260608083018051151591830191909152511515600114156111c6576000600b81611166866001612554565b815260208082019290925260409081016000208151608080820184528254825260018301546001600160a01b03908116958301869052600284015416938201939093526003909101546060909101908152908401919091525160a0830152505b808484815181106111d9576111d961256c565b6020026020010181905250505b50806111f181612582565b915050611091565b50949350505050565b6060600061120f60075490565b90506000805b828110156112705733600c600061122d846001612554565b81526020810191909152604001600020600201546001600160a01b0316141561125e578161125a81612582565b9250505b8061126881612582565b915050611215565b5060008167ffffffffffffffff81111561128c5761128c612267565b6040519080825280602002602001820160405280156112c557816020015b6112b2612003565b8152602001906001900390816112aa5790505b50905060005b83811015611433576000600c816112e3846001612554565b8152602080820192909252604090810160002081516080810183528154815260018201546001600160a01b0390811694820194909452600290910154928316918101829052600160a01b90920460ff16151560608301529091503314156114205761134c612003565b815181526020808301516001600160a01b0390811691830191909152604080840151909116908201526060808301805115159183019190915251151560011415611400576000600b816113a0866001612554565b815260208082019290925260409081016000208151608080820184528254825260018301546001600160a01b03908116958301869052600284015416938201939093526003909101546060909101908152908401919091525160a0830152505b808484815181106114135761141361256c565b6020026020010181905250505b508061142b81612582565b9150506112cb565b509392505050565b6001600160a01b03918216600090815260056020908152604080832093909416825291909152205460ff1690565b6000828152600c60205260409020600201546001600160a01b031633146114e55760405162461bcd60e51b815260206004820152602a60248201527f4f6e6c79206974656d206f776e65722063616e20706572666f726d20746869736044820152691037b832b930ba34b7b760b11b606482015260840161053d565b60095434146115065760405162461bcd60e51b815260040161053d906125cc565b600081116115565760405162461bcd60e51b815260206004820152601c60248201527f5072696365206d757374206265206174206c6561737420312077656900000000604482015260640161053d565b60095434146115775760405162461bcd60e51b815260040161053d906125cc565b6000828152600c602090815260408083206002908101805460ff60a01b1916600160a01b1790558151608081018352868152338185019081523082850190815260608301888152898852600b909652939095208151815594516001860180546001600160a01b039283166001600160a01b031991821617909155935192860180549390911692909316919091179091559051600390920191909155611620600880546001019055565b61162b3330856117c2565b6040805184815233602082015230818301526060810184905290517f60af48b7e1a8c27a8471e490b952dbd818ad363aef7884211ae333dad8a130d29181900360800190a1505050565b6000908152600260205260409020546001600160a01b0316151590565b600081815260046020526040902080546001600160a01b0319166001600160a01b03841690811790915581906116c7826109e4565b6001600160a01b03167f8c5be1e5ebec7d5bd14f71427d1e84f3dd0314c0f7b2291e5b200ac8c7c3b92560405160405180910390a45050565b600061170b82611675565b61176c5760405162461bcd60e51b815260206004820152602c60248201527f4552433732313a206f70657261746f7220717565727920666f72206e6f6e657860448201526b34b9ba32b73a103a37b5b2b760a11b606482015260840161053d565b6000611777836109e4565b9050806001600160a01b0316846001600160a01b031614806117b25750836001600160a01b03166117a7846104d5565b6001600160a01b0316145b80610fb75750610fb7818561143b565b826001600160a01b03166117d5826109e4565b6001600160a01b0316146118395760405162461bcd60e51b815260206004820152602560248201527f4552433732313a207472616e736665722066726f6d20696e636f72726563742060448201526437bbb732b960d91b606482015260840161053d565b6001600160a01b03821661189b5760405162461bcd60e51b8152602060048201526024808201527f4552433732313a207472616e7366657220746f20746865207a65726f206164646044820152637265737360e01b606482015260840161053d565b6118a6600082611692565b6001600160a01b03831660009081526003602052604081208054600192906118cf908490612610565b90915550506001600160a01b03821660009081526003602052604081208054600192906118fd908490612554565b909155505060008181526002602052604080822080546001600160a01b0319166001600160a01b0386811691821790925591518493918716917fddf252ad1be2c89b69c2b068fc378daa952ba7f163c4a11628f55a4df523b3ef91a4505050565b6001600160a01b0382166119b45760405162461bcd60e51b815260206004820181905260248201527f4552433732313a206d696e7420746f20746865207a65726f2061646472657373604482015260640161053d565b6119bd81611675565b15611a0a5760405162461bcd60e51b815260206004820152601c60248201527f4552433732313a20746f6b656e20616c7265616479206d696e74656400000000604482015260640161053d565b6001600160a01b0382166000908152600360205260408120805460019290611a33908490612554565b909155505060008181526002602052604080822080546001600160a01b0319166001600160a01b03861690811790915590518392907fddf252ad1be2c89b69c2b068fc378daa952ba7f163c4a11628f55a4df523b3ef908290a45050565b611a9a82611675565b611afd5760405162461bcd60e51b815260206004820152602e60248201527f45524337323155524953746f726167653a2055524920736574206f66206e6f6e60448201526d32bc34b9ba32b73a103a37b5b2b760911b606482015260840161053d565b6000828152600660209081526040909120825161067392840190612038565b60408051608081018252838152336020808301828152838501838152861515606086019081526000898152600c85528790209551865591516001860180546001600160a01b039283166001600160a01b031990911617905590516002909501805492511515600160a01b026001600160a81b03199093169590911694909417179092558251858152918201527fa00df78dac12a19135e4f0d155726c7b79dc90f805f156aea20bddd207f2bb33910160405180910390a15050565b816001600160a01b0316836001600160a01b03161415611c395760405162461bcd60e51b815260206004820152601960248201527f4552433732313a20617070726f766520746f2063616c6c657200000000000000604482015260640161053d565b6001600160a01b03838116600081815260056020908152604080832094871680845294825291829020805460ff191686151590811790915591519182527f17307eab39ab6107e8899845ad3d59bd9653f200f220920489ca2b5937696c31910160405180910390a3505050565b611cb18484846117c2565b611cbd84848484611e07565b610b325760405162461bcd60e51b815260040161053d90612627565b805480611d285760405162461bcd60e51b815260206004820152601b60248201527f436f756e7465723a2064656372656d656e74206f766572666c6f770000000000604482015260640161053d565b600019019055565b6060611d3b82611675565b611d9f5760405162461bcd60e51b815260206004820152602f60248201527f4552433732314d657461646174613a2055524920717565727920666f72206e6f60448201526e3732bc34b9ba32b73a103a37b5b2b760891b606482015260840161053d565b6000611db660408051602081019091526000815290565b90506000815111611dd6576040518060200160405280600081525061077d565b80611de084611f05565b604051602001611df192919061259d565b6040516020818303038152906040529392505050565b60006001600160a01b0384163b15611efa57604051630a85bd0160e11b81526001600160a01b0385169063150b7a0290611e4b903390899088908890600401612679565b6020604051808303816000875af1925050508015611e86575060408051601f3d908101601f19168201909252611e83918101906126b6565b60015b611ee0573d808015611eb4576040519150601f19603f3d011682016040523d82523d6000602084013e611eb9565b606091505b508051611ed85760405162461bcd60e51b815260040161053d90612627565b805181602001fd5b6001600160e01b031916630a85bd0160e11b149050610fb7565b506001949350505050565b606081611f295750506040805180820190915260018152600360fc1b602082015290565b8160005b8115611f535780611f3d81612582565b9150611f4c9050600a836126e9565b9150611f2d565b60008167ffffffffffffffff811115611f6e57611f6e612267565b6040519080825280601f01601f191660200182016040528015611f98576020820181803683370190505b5090505b8415610fb757611fad600183612610565b9150611fba600a866126fd565b611fc5906030612554565b60f81b818381518110611fda57611fda61256c565b60200101906001600160f81b031916908160001a905350611ffc600a866126e9565b9450611f9c565b6040805160c081018252600080825260208201819052918101829052606081018290526080810182905260a081019190915290565b828054612044906124b2565b90600052602060002090601f01602090048101928261206657600085556120ac565b82601f1061207f57805160ff19168380011785556120ac565b828001600101855582156120ac579182015b828111156120ac578251825591602001919060010190612091565b506120b89291506120bc565b5090565b5b808211156120b857600081556001016120bd565b6001600160e01b0319811681146120e757600080fd5b50565b6000602082840312156120fc57600080fd5b813561077d816120d1565b60005b8381101561212257818101518382015260200161210a565b83811115610b325750506000910152565b6000815180845261214b816020860160208601612107565b601f01601f19169290920160200192915050565b60208152600061077d6020830184612133565b60006020828403121561218457600080fd5b5035919050565b80356001600160a01b03811681146121a257600080fd5b919050565b600080604083850312156121ba57600080fd5b6121c38361218b565b946020939093013593505050565b80518252602081015160018060a01b038082166020850152806040840151166040850152606083015115156060850152806080840151166080850152505060a081015160a08301525050565b60c0810161043d82846121d1565b60008060006060848603121561224057600080fd5b6122498461218b565b92506122576020850161218b565b9150604084013590509250925092565b634e487b7160e01b600052604160045260246000fd5b600067ffffffffffffffff8084111561229857612298612267565b604051601f8501601f19908116603f011681019082821181831017156122c0576122c0612267565b816040528093508581528686860111156122d957600080fd5b858560208301376000602087830101525050509392505050565b60006020828403121561230557600080fd5b813567ffffffffffffffff81111561231c57600080fd5b8201601f8101841361232d57600080fd5b610fb78482356020840161227d565b6020808252825182820181905260009190848201906040850190845b8181101561237e5761236b8385516121d1565b9284019260c09290920191600101612358565b50909695505050505050565b60006020828403121561239c57600080fd5b61077d8261218b565b600080604083850312156123b857600080fd5b6123c18361218b565b9150602083013580151581146123d657600080fd5b809150509250929050565b600080600080608085870312156123f757600080fd5b6124008561218b565b935061240e6020860161218b565b925060408501359150606085013567ffffffffffffffff81111561243157600080fd5b8501601f8101871361244257600080fd5b6124518782356020840161227d565b91505092959194509250565b6000806040838503121561247057600080fd5b6124798361218b565b91506124876020840161218b565b90509250929050565b600080604083850312156124a357600080fd5b50508035926020909101359150565b600181811c908216806124c657607f821691505b602082108114156124e757634e487b7160e01b600052602260045260246000fd5b50919050565b60208082526031908201527f4552433732313a207472616e736665722063616c6c6572206973206e6f74206f6040820152701ddb995c881b9bdc88185c1c1c9bdd9959607a1b606082015260800190565b634e487b7160e01b600052601160045260246000fd5b600082198211156125675761256761253e565b500190565b634e487b7160e01b600052603260045260246000fd5b60006000198214156125965761259661253e565b5060010190565b600083516125af818460208801612107565b8351908301906125c3818360208801612107565b01949350505050565b60208082526024908201527f5072696365206d75737420626520657175616c20746f206c697374696e6720706040820152637269636560e01b606082015260800190565b6000828210156126225761262261253e565b500390565b60208082526032908201527f4552433732313a207472616e7366657220746f206e6f6e20455243373231526560408201527131b2b4bb32b91034b6b83632b6b2b73a32b960711b606082015260800190565b6001600160a01b03858116825284166020820152604081018390526080606082018190526000906126ac90830184612133565b9695505050505050565b6000602082840312156126c857600080fd5b815161077d816120d1565b634e487b7160e01b600052601260045260246000fd5b6000826126f8576126f86126d3565b500490565b60008261270c5761270c6126d3565b50069056fea2646970667358221220f6910804f1ae878e3f15053712802311b0180cc6537242ffe21a04741573ea1b64736f6c634300080a0033",
  "linkReferences": {},
  "deployedLinkReferences": {}
}